:100000000C942A000C946E010C9497010C94C0017E
:100010000C9447000C9447000C9447000C940C0778
:100020000C9435070C94E3060C940E050C94E5042F
:100030000C9447000C94BC040C9447000C94780476
:100040000C9447000C9447000C9447000C94470014
:100050000C94470011241FBECFE5D8E0DEBFCDBF12
:1000600010E0A0E6B0E0E4EDF6E102C005900D92EC
:10007000AE3CB107D9F710E0AEECB0E001C01D9284
:10008000AE3EB107E1F70E946F090C94680B0C9427
:1000900000001F9381E063E00E94E90115E0812FD9
:1000A0008A95F1F781E063E00E9426021A95F1F744
:1000B0001F910895EF92FF921F93182F682F607F72
:1000C00081E00E94DD0381E062E041E00E942303C1
:1000D0000E9449000F2EF8ECEF2EFF24F02DC701EF
:1000E0000197F1F71295107F81E0612F0E94DD03E7
:1000F00081E062E041E00E9423030E944900C701C1
:100100000197F1F71F91FF90EF9008951F93CF9300
:10011000DF93EC018881882351F010E00E945A009F
:100120001F5FFE01E10FF11D80818823B9F7DF9188
:10013000CF911F910895EF92FF921F93182F81E0A6
:10014000612F0E94DD0381E062E040E00E94230312
:100150000E9449000F2EF8ECEF2EFF24F02DC7016E
:100160000197F1F71295107F81E0612F0E94DD0366
:1001700081E062E040E00E9423030E944900C70141
:100180000197F1F71F91FF90EF900895882329F4CC
:10019000862F80580E949B000895862F80540E94CD
:1001A0009B00089581E00E949B0080E197E2019707
:1001B000F1F708950F931F9381E064E041E00E94FE
:1001C000A40281E065E041E00E94A40281E066E0D3
:1001D00041E00E94A40281E067E041E00E94A402A5
:1001E00081E063E041E00E94A40281E062E041E03E
:1001F0000E94A40224EF31E048EC50E0CA010197CC
:10020000F1F721503040D1F783E30E949B0000EDCD
:1002100017E0C8010197F1F782E30E949B00C80133
:100220000197F1F78CE00E949B00C8010197F1F75C
:1002300086E00E949B00C8010197F1F788E20E94C6
:100240009B000E94D20080E29EE40197F1F71F918B
:100250000F91089590E0A0E0B0E0BC01CD0128EE40
:1002600033E040E050E00E94270B24EB30E040E018
:1002700050E00E94460B29513C4F3BBD2ABD39BD81
:1002800028BD089583E065E041E00E94A4028FE16B
:100290009EE497BD86BD8EE062E043E022E00E94CE
:1002A0003B050895982FECE3F0E0808181FDFDCFC0
:1002B0007FBB6EBB9DBBECE3F0E084E0808382E01B
:1002C000808308959C01ECE3F0E0808181FDFDCF07
:1002D0003FBB2EBB81E08CBB8DB308951F920F9264
:1002E0000FB60F9211242F933F934F935F936F9309
:1002F0007F938F939F93AF93BF93EF93FF93E0917F
:10030000D200F091D300309709F00995FF91EF9159
:10031000BF91AF919F918F917F916F915F914F911D
:100320003F912F910F900FBE0F901F9018951F9225
:100330000F920FB60F9211242F933F934F935F9319
:100340006F937F938F939F93AF93BF93EF93FF939D
:10035000E091D000F091D100309709F00995FF911C
:10036000EF91BF91AF919F918F917F916F915F912D
:100370004F913F912F910F900FBE0F901F901895A6
:100380001F920F920FB60F9211242F933F934F930A
:100390005F936F937F938F939F93AF93BF93EF93ED
:1003A000FF93E091CE00F091CF00309709F00995CE
:1003B000FF91EF91BF91AF919F918F917F916F913D
:1003C0005F914F913F912F910F900FBE0F901F9013
:1003D00018958130A1F0813028F08230E9F0833027
:1003E000A1F527C0EBE3F0E0208181E090E002C0BE
:1003F000880F991F6A95E2F7282B20830895E8E378
:10040000F0E0208181E090E002C0880F991F6A959A
:10041000E2F7282B20830895E5E3F0E0208181E0D6
:1004200090E002C0880F991F6A95E2F7282B20837D
:100430000895E2E3F0E0208181E090E002C0880FBF
:10044000991F6A95E2F7282B208308958130A9F03F
:10045000813028F08230F9F08330C1F52AC0EBE317
:10046000F0E0208181E090E002C0880F991F6A953A
:10047000E2F78095822380830895E8E3F0E020810D
:1004800081E090E002C0880F991F6A95E2F780959D
:10049000822380830895E5E3F0E0208181E090E00D
:1004A00002C0880F991F6A95E2F7809582238083A6
:1004B0000895E2E3F0E0208181E090E002C0880F3F
:1004C000991F6A95E2F78095822380830895813091
:1004D000A1F0813028F08230E9F08330A1F527C007
:1004E000EBE3F0E0208181E090E002C0880F991FEB
:1004F0006A95E2F7282720830895E8E3F0E0208159
:1005000081E090E002C0880F991F6A95E2F72827E2
:1005100020830895E5E3F0E0208181E090E002C0CF
:10052000880F991F6A95E2F7282720830895E2E350
:10053000F0E0208181E090E002C0880F991F6A9569
:10054000E2F7282720830895813031F1813038F097
:10055000823009F43EC0833009F074C057C0413086
:1005600069F4EAE3F0E0208181E090E002C0880FC6
:10057000991F6A95E2F7282B20830895EAE3F0E0BB
:10058000208181E090E002C0880F991F6A95E2F710
:100590008095822380830895413069F4E7E3F0E099
:1005A000208181E090E002C0880F991F6A95E2F7F0
:1005B000282B20830895E7E3F0E0208181E090E09C
:1005C00002C0880F991F6A95E2F780958223808385
:1005D0000895413069F4E4E3F0E0208181E090E0A7
:1005E00002C0880F991F6A95E2F7282B208308958F
:1005F000E4E3F0E0208181E090E002C0880F991FE1
:100600006A95E2F78095822380830895413069F4EA
:10061000E1E3F0E0208181E090E002C0880F991FC3
:100620006A95E2F7282B20830895E1E3F0E020812A
:1006300081E090E002C0880F991F6A95E2F78095EB
:10064000822380830895813031F1813038F0823007
:1006500009F43EC0833009F074C057C0413069F4DA
:10066000EBE3F0E0208181E090E002C0880F991F69
:100670006A95E2F7282B20830895EBE3F0E02081D0
:1006800081E090E002C0880F991F6A95E2F780959B
:10069000822380830895413069F4E8E3F0E020810B
:1006A00081E090E002C0880F991F6A95E2F7282B3D
:1006B00020830895E8E3F0E0208181E090E002C02B
:1006C000880F991F6A95E2F78095822380830895A9
:1006D000413069F4E5E3F0E0208181E090E002C080
:1006E000880F991F6A95E2F7282B20830895E5E388
:1006F000F0E0208181E090E002C0880F991F6A95A8
:10070000E2F78095822380830895413069F4E2E323
:10071000F0E0208181E090E002C0880F991F6A9587
:10072000E2F7282B20830895E2E3F0E0208181E0C6
:1007300090E002C0880F991F6A95E2F780958223A6
:1007400080830895DF93CF930F92CDB7DEB71982E0
:10075000813089F0813028F08230B9F0833041F562
:100760001EC089B390E002C0959587956A95E2F71F
:10077000817089831DC086B390E002C095958795EE
:100780006A95E2F78170898313C083B390E002C059
:10079000959587956A95E2F78170898309C080B342
:1007A00090E002C0959587956A95E2F781708983FC
:1007B00089810F90CF91DF910895813081F0813050
:1007C00028F08230A9F0833021F51BC0EBE3F0E084
:1007D0008081962F907F8F70982B90830895E8E307
:1007E000F0E08081962F907F8F70982B90830895F2
:1007F000E5E3F0E08081962F907F8F70982B9083B7
:100800000895E2E3F0E08081962F907F8F70982B1F
:1008100090830895A0E4B0E01C9283E389B9EAE2F2
:10082000F0E080818068808380818B7F808386E890
:100830008C9380818F7E808380818F7D8083808177
:10084000806180838081886080830895282FEBE217
:10085000F0E08081829586958770D9F32CB9089550
:10086000EBE2F0E080818823ECF7EBE2F0E08081BE
:100870008F7780838CB108950F931F93CF93DF936D
:10088000E091EC00F091ED001082C091D800D09181
:10089000D9000091DA001091DB000C0F1D1F0E949F
:1008A0003004F8018083C130D10559F4E091EC00A7
:1008B000F091ED0081E080831092D9001092D80071
:1008C00006C0CE0101969093D9008093D800DF91A5
:1008D000CF911F910F910895EAE2F0E0808180614D
:1008E00080830895EAE2F0E0808180688083089543
:1008F0001F920F920FB60F9211242F933F934F9395
:100900005F936F937F938F939F93AF93BF93EF9377
:10091000FF93E091D600F091D700309709F0099548
:10092000FF91EF91BF91AF919F918F917F916F91C7
:100930005F914F913F912F910F900FBE0F901F909D
:1009400018959093D5008093D40008950F931F932A
:100950008B019093DB008093DA000E946C040E946C
:1009600072041093ED000093EC008CE394E00E947D
:10097000A1041F910F9108951F920F920FB60F922D
:1009800011242F933F934F935F936F937F938F9394
:100990009F93AF93BF93EF93FF93E091D400F091B7
:1009A000D500309709F00995FF91EF91BF91AF9174
:1009B0009F918F917F916F915F914F913F912F9177
:1009C0000F900FBE0F901F9018951F920F920FB6A9
:1009D0000F9211242F933F934F935F936F937F93C5
:1009E0008F939F93AF93BF93EF93FF93E091DE00BC
:1009F000F091DF00309709F00995FF91EF91BF91D9
:100A0000AF919F918F917F916F915F914F913F91A6
:100A10002F910F900FBE0F901F9018951F920F925D
:100A20000FB60F9211242F933F934F935F936F93C1
:100A30007F938F939F93AF93BF93EF93FF93E09137
:100A4000DC00F091DD00309729F0099582E064E048
:100A50000E946702FF91EF91BF91AF919F918F919B
:100A60007F916F915F914F913F912F910F900FBEAA
:100A70000F901F9018952EBD873009F4A1C08830C3
:100A800090F4833009F458C0843030F4813091F10F
:100A9000823008F040C01DC0853009F46FC0863038
:100AA00008F07DC05AC08B3009F4CEC08C3038F4C9
:100AB000893009F4A7C08A3008F0B5C092C08E30E2
:100AC00009F4E4C08F3009F4F2C08C3009F000C1A1
:100AD000CCC0EFE4F0E080818E7F808380818D7FC9
:100AE0008083EEE4F0E08081877F808380818F7E49
:100AF0008083FEC0EFE4F0E08081816080838081AC
:100B00008D7F8083EEE4F0E08081877F8083808129
:100B10008F7E8083EDC0EFE4F0E080818E7F808364
:100B2000808182608083EEE4F0E08081877F808333
:100B300080818F7E8083DCC0EFE4F0E08081816083
:100B40008083808182608083EEE4F0E08081877F13
:100B5000808380818F7E8083CBC0EFE4F0E0808152
:100B60008E7F808380818D7F8083EEE4F0E08081C2
:100B70008860808380818F7E8083BAC0EFE4F0E05C
:100B800080818160808380818D7F8083EEE4F0E0CE
:100B900080818860808380818F7E8083A9C0EFE41C
:100BA000F0E080818E7F8083808182608083EEE4AC
:100BB000F0E080818860808380818F7E808398C010
:100BC000EFE4F0E0808181608083808182608083B7
:100BD000EEE4F0E080818860808380818F7E808376
:100BE00087C0EFE4F0E080818E7F808380818D7FFD
:100BF0008083EEE4F0E08081877F80838081806164
:100C0000808376C0EFE4F0E0808181608083808122
:100C10008D7F8083EEE4F0E08081877F8083808118
:100C20008061808365C0EFE4F0E080818E7F808307
:100C3000808182608083EEE4F0E08081877F808322
:100C400080818061808354C0EFE4F0E08081816026
:100C50008083808182608083EEE4F0E08081877F02
:100C6000808380818061808343C0EFE4F0E08081F5
:100C70008E7F808380818D7F8083EEE4F0E08081B1
:100C80008860808380818061808332C0EFE4F0E0FF
:100C900080818E7F8083808182608083EEE4F0E0BB
:100CA00080818860808380818061808321C0EFE4BF
:100CB000F0E0808181608083808182608083EEE4C7
:100CC000F0E080818860808380818061808310C0B3
:100CD000EFE4F0E080818E7F808380818D7F808350
:100CE000EEE4F0E08081877F808380818F7E808347
:100CF000613081F0613028F06230A9F0633029F56D
:100D00001BC0EFE4F0E080818F7B808380818F7750
:100D1000808323C0EFE4F0E0808180648083808161
:100D20008F7780831AC0EFE4F0E080818F7B80832F
:100D300080818068808311C0EFE4F0E0808180646E
:100D4000808380818068808308C0EFE4F0E0808148
:100D50008F7B808380818F778083413081F0413029
:100D600028F04230A9F0433029F51BC0EFE4F0E051
:100D700080818F7E808380818F7D80830895EFE4E2
:100D8000F0E080818061808380818F7D8083089501
:100D9000EFE4F0E080818F7E8083808180628083B9
:100DA0000895EFE4F0E0808180618083808180623B
:100DB00080830895EFE4F0E080818F7E80838081DE
:100DC0008F7D808308951F920F920FB60F9211248A
:100DD0002F933F934F935F936F937F938F939F9343
:100DE000AF93BF93EF93FF93E091E400F091E500A0
:100DF000309709F00995FF91EF91BF91AF919F91C5
:100E00008F917F916F915F914F913F912F910F90B3
:100E10000FBE0F901F9018951F920F920FB60F9252
:100E200011242F933F934F935F936F937F938F93EF
:100E30009F93AF93BF93EF93FF93E091E200F09104
:100E4000E300309709F00995FF91EF91BF91AF91C1
:100E50009F918F917F916F915F914F913F912F91D2
:100E60000F900FBE0F901F9018951F920F920FB604
:100E70000F9211242F933F934F935F936F937F9320
:100E80008F939F93AF93BF93EF93FF93E091E00015
:100E9000F091E100309709F00995FF91EF91BF9132
:100EA000AF919F918F917F916F915F914F913F9102
:100EB0002F910F900FBE0F901F9018958F929F92B9
:100EC000AF92BF92DF92EF92FF920F931F93CF9357
:100ED000DF935C0181E061E00E94C60080E690E063
:100EE0000E9486008501DD240F2EF4EF8F2EF1E0A5
:100EF0009F2EF02DC8ECD0E00E94310AF8018083CB
:100F00008823D1F381E06D2D0E94C600F801808115
:100F10000E945A009401CE010197F1F72150304010
:100F2000D1F781E06D2D0E94C6008AE20E945A002E
:100F3000D3940F5F1F4FF4E0DF16F1F6F501148232
:100F400080E061E00E94C600DF91CF911F910F9178
:100F5000FF90EF90DF90BF90AF909F908F9008959B
:100F60002F923F924F925F926F927F928F929F92B9
:100F7000AF92BF92CF92DF92EF92FF920F931F93A7
:100F8000DF93CF93CDB7DEB72A970FB6F894DEBFC5
:100F90000FBECDBF80E290E0A0E0B0E089839A83ED
:100FA000AB83BC831D8280E290E2A0E0B0E08E8340
:100FB0009F83A887B9871A867E010894E11CF11CDB
:100FC00001E210E0C8010E946201F70181937F01F4
:100FD0000F5F1F4F05321105A9F7FF240F2EF0E711
:100FE0008F2EF0E09F2EF02D0F2EF6E0CF2EDD2479
:100FF000F02DCC0EDD1E662477245E010894A11C22
:10100000B11C0F2EF1E92F2EF0E03F2EF02D0F2E08
:10101000F0E14F2EF7E25F2EF02D08EC10E001C05A
:10102000FF2480E062E00E94C600C4010E948600A6
:10103000C6010E945E079301422FF601E20FF31FE3
:10104000D501A20FB31F90818C91981711F0F394E2
:1010500006C04F5F2F5F3F4F2430310569F7FF20F7
:1010600011F04430A9F40E94D20080E065E00E94B3
:10107000C6008BE790E00E94860020E137E248EC52
:1010800050E0CA010197F1F721503040D1F73AC042
:10109000F1E0FF16A1F40E94D20080E062E00E941D
:1010A000C60083E890E00E9486009201C801019783
:1010B000F1F721503040D1F70E94D200B2CF0E9408
:1010C000D20080E062E00E94C600C1010E9486005A
:1010D0009201C8010197F1F721503040D1F70E94E9
:1010E000D20080E062E00E94C6008FE990E00E949A
:1010F000860020E335E7C8010197F1F72150304021
:10110000D1F78ECF2A960FB6F894DEBF0FBECDBFB3
:10111000CF91DF911F910F91FF90EF90DF90CF90D3
:10112000BF90AF909F908F907F906F905F904F9007
:101130003F902F900895DF93CF9300D000D00F926F
:10114000CDB7DEB780E290E0A0E0B0E089839A837B
:10115000AB83BC831D8280E062E00E94C60080E712
:1011600090E00E948600CE0101960E945E07898170
:1011700061E270E00E9452018A8162E270E00E94A6
:1011800052018B8163E270E00E9452018C8164E223
:1011900070E00E9452010E94D20080E065E00E944F
:1011A000C6008BE790E00E9486000F900F900F9092
:1011B0000F900F90CF91DF9108951F9380E060E032
:1011C0000E94C6008BEA90E00E94860081E060E009
:1011D0000E94C60088EB90E00E9486000E94310ABF
:1011E000182F8823D9F30E945A0024EF31E048ECED
:1011F00050E0CA010197F1F721503040D1F7113387
:1012000029F40E94D2000E949B0802C00E94D200D2
:101210001F91089580E00E942A01089586E90E94A6
:101220002A010895FF920F931F93DF93CF930F929C
:10123000CDB7DEB7082F192F80E060E00E94C6000E
:10124000802F0E945A00812F0E945A0080E590E072
:101250000E9462018983812F82958F70FF24F3940D
:10126000F8220BBB812F837029F481E060E00E949B
:10127000260204C081E060E00E94E901812F8C70A9
:1012800029F481E061E00E94260204C081E061E06F
:101290000E94E9018981F81669F081E0F81619F4D5
:1012A0000E940E0902C00E940A098F2D60E570E0BD
:1012B0000E9452010F90CF91DF911F910F91FF90EB
:1012C00008951F9383E063E00E94A203182F110F7B
:1012D00083E064E00E94A203812B1F910895CF92C6
:1012E000DF92EF92FF920F931F93CF93DF938FEFD5
:1012F0008ABB1BBA87EC81BB83E087BB80E895E2A1
:1013000040E052E16AE770E00E940A040E94420154
:101310000E94DA000E942C0A7894ECE3F0E08081CD
:101320008D7F808380E390E00E9462018093C800FB
:101330008F3F61F480E090E00E9412090E949B08B8
:1013400080E060E370E00E94520129C081E390E0F8
:101350000E9462018093CA0082E390E00E946201D1
:101360008093C90090E03091CA0020E0822B932B3B
:101370009093CC008093CB0080E060E00E94C60098
:101380000E94B0070E94D2000E94DD080E94D20095
:101390008091CB009091CC0090700E9412091BBAF2
:1013A000789403EC10E00F2EFAEEEF2EF0E0FF2E13
:1013B000F02D68010894C11CD11C0E946109982F6E
:1013C0008093E9008091E800981709F1892F805DEA
:1013D0000E94260480E00E94260481E060E00E94D2
:1013E000C6008091E900805D0E945A008091E9006A
:1013F0008093E800823011F0882329F483E067E0CD
:101400000E94E90104C083E067E00E942602C8014F
:10141000B7010E94A6048091EA00882371F210921D
:10142000EA00F801D081C0E0F601808190E08C2BC9
:101430009D2B9093E7008093E6000E941209F6012D
:10144000808161E370E00E945201F801808162E3D3
:1014500070E00E945201B1CF8FE084BB8FEF85BB5B
:1014600008950F931F9310E0E5E3F0E0A3E3B0E0ED
:1014700080818160808380818260808380818460BC
:101480008083808188608083113059F0113028F08A
:10149000123059F0133081F40CC080818E7F80832C
:1014A0000BC080818D7F808307C080818B7F80838C
:1014B00003C08081877F80838C919C912C913C918B
:1014C00080719072892B2074822B3078082F032B27
:1014D0002C914C916C918C91881F8827881F90E0EB
:1014E00030E0329522952F7023273F702327282341
:1014F000392350E056954795529542954F704527B0
:101500005F7045274223532370E00024660F771F46
:10151000001C660F771F001C672F702D6423752336
:101520006130710571F1E3E3F0E020814081608179
:101530008081881F8827881F90E030E032952295AF
:101540002F7023273F7023272823392350E05695F7
:101550004795529542954F7045275F704527422326
:10156000532370E00024660F771F001C660F771F5F
:10157000001C672F702D6423752361307105A9F657
:1015800005C01F5F143009F073CF5DC0143009F43B
:101590005AC01130E1F0113030F0123061F11330E7
:1015A00009F051C03CC0003B51F0013B18F400373A
:1015B00071F407C0003D39F0003E49F406C083E3F2
:1015C00043C081E441C082E33FC081E33DC0003BB2
:1015D00051F0013B18F4003771F407C0003D39F0B9
:1015E000003E49F406C086E32FC082E42DC085E3A7
:1015F0002BC084E329C0003B51F0013B18F40037B5
:1016000071F407C0003D39F0003E49F406C089E39B
:101610001BC083E419C088E317C087E315C0003BF3
:1016200051F0013B18F4003771F407C0003D39F068
:10163000003E49F406C083E207C084E405C080E3AD
:1016400003C08AE201C080E01F910F910895629F5C
:10165000D001739FF001829FE00DF11D649FE00DAA
:10166000F11D929FF00D839FF00D749FF00D659F0B
:10167000F00D9927729FB00DE11DF91F639FB00D0A
:10168000E11DF91FBD01CF0111240895A1E21A2E19
:10169000AA1BBB1BFD010DC0AA1FBB1FEE1FFF1F16
:1016A000A217B307E407F50720F0A21BB30BE40B66
:1016B000F50B661F771F881F991F1A9469F76095AD
:1016C0007095809590959B01AC01BD01CF01089567
:0416D000F894FFCFBC
:1016D4002020202020202020202020202020200026
:1016E400456E74657220506173730057656C636F47
:1016F4006D650057726F6E672050617373202331DC
:101704000057726F6E672050617373202332004C50
:101714006F67204F7574202E2E2E006368616E67EC
:101724006520706173733F00312979206F72203214
:0E173400296E006100000000FFFFFFFF0000B3
:00000001FF
